:100000000C9495000C9494050C9494050C94940510
:100010000C9494050C9494050C9494050C949405FC
:100020000C9494050C9494050C9494050C949405EC
:100030000C9494050C9494050C9494050C949405DC
:100040000C9494050C94EF020C9494050C94940574
:100050000C949405ED01F8010602170228023A02F9
:100060004B026602660266025802090352035203FB
:100070005203520352035203520309035203520321
:10008000520352035203520352030B03520352030F
:1000900052035203520352035203520352035203B8
:1000A000520352035203520352030B0352035203EF
:1000B0005203520352035203520352035203520398
:1000C000520352035203520352034F03520352038B
:1000D000520352035203520352033003520352039A
:1000E0005203520352035203520352035203520368
:1000F0005203520352035203520325035203520385
:100100005203520352035203520340030060007A29
:1001100080007A007B000B36007B007E80007E0032
:100120007F000B37007F0080800011241FBECFE5C9
:10013000D4E0DEBFCDBFECE0F1E041E017C0B59107
:10014000A59135912591059107FD0CC0959185915B
:10015000EF01F92FE82F05900D92A217B307D9F7F9
:10016000FE0104C01D92A217B307E1F7E932F407BC
:0E01700031F70E94D0030C945305F894FFCF92
:0F017E00777C395E79713D7438545C7350781C0E
:0A018D003F065B4F666D7D077F6F34
:08019700010204081020408061
:03019F006380403A
:1001A200CF93DF93EC01888190E00E94DF0188BB4E
:1001B20080916200909163000E94BE04888190E069
:1001C2000E94DF01882319F08BB384608BBB80917E
:1001D2006000909161000E94BE048BB38B7F8BBB49
:1001E2008DE08A95F1F70000898190E00E94DF019D
:1001F20088BB80916200909163000E94BE04898155
:1002020090E00E94DF01882319F08BB388608BBBDA
:1002120080916000909161000E94BE048BB3877F41
:100222008BBB8DE08A95F1F700008A8190E00E94F5
:10023200DF0188BB80916200909163000E94BE043E
:100242008A8190E00E94DF01882319F08BB38061DC
:100252008BBB80916000909161000E94BE048BB3C1
:100262008F7E8BBB8DE08A95F1F700008B8190E049
:100272000E94DF0188BB80916200909163000E941E
:10028200BE048B8190E00E94DF01882319F08BB3BA
:1002920080628BBB80916000909161000E94BE04DD
:1002A2008BB38F7D8BBB8DE08A95F1F700008C813B
:1002B20090E00E94DF0188BB809162009091630010
:1002C2000E94BE048C8190E00E94DF01882319F015
:1002D2008BB380648BBB80916000909161000E941F
:1002E200BE048BB38F7B8BBB8DE08A95F1F7000048
:1002F2008D8190E00E94DF0188BB80916200909125
:1003020063000E94BE048D8190E00E94DF01882379
:1003120019F08BB380688BBB809160009091610073
:100322000E94BE048BB38F778BBB8DE08A95F1F769
:1003320000008E8190E00E94DF0188BB8091620004
:10034200909163000E94BE048E8190E00E94DF01C2
:10035200882319F082B3816082BB80916000909102
:1003620061000E94BE0482B38E7F82BB8DE08A95BB
:10037200F1F700008F8190E00E94DF0188BB80913D
:100382006200909163000E94BE048F8190E00E94FF
:10039200DF01882319F082B3826082BB8091600002
:1003A200909161000E94BE0482B38D7F82BB8DE07A
:0C03B2008A95F1F70000DF91CF910895CB
:1003BE009C016AE070E00E94F2046B30710508F057
:1003CE007EC0FB01E65DFF4F0C946F05C901330F34
:1003DE00AA0B83579E4FAF4FFC018491A7FD8081DE
:1003EE000895C9010A97092E000CAA0B83579E4F38
:1003FE00AF4FFC018491A7FD808180580895243170
:10040E00310509F45EC0C9014597092E000CAA0BEF
:10041E0082589E4FAF4FFC018491A7FD80810895B5
:10042E00243231050CF04FC0C9014597092E000C3E
:10043E00AA0B82589E4FAF4FFC018491A7FD80817D
:10044E0008952832310509F440C0C9018997092E53
:10045E00000CAA0B82589E4FAF4FFC018491A7FD52
:10046E00808180580895283331058CF5C90189970C
:10047E00092E000CAA0B82589E4FAF4FFC0184919F
:10048E00A7FD808180580895C901CC97092E000CD4
:10049E00AA0B81569E4FAF4FFC018491A7FD808120
:1004AE000895C90184569109092E000CAA0B89568C
:1004BE009E4FAF4FFC018491A7FD8081089580E08F
:1004CE00089580E0089580E0089580E0089580E02A
:0204DE0008957F
:1004E000CF93DF93882389F00E948505CCE6D0E086
:1004F0008B830E9489058F718A830E948D05898371
:100500000E9489058170888325C0809177008130A1
:1005100049F018F0823061F014C00E948505809384
:100520006F000FC00E9489058F7180936E0009C013
:100530000E948D05CCE6D0E089830E9489058170F8
:100540008883809177008F5F80937700833011F4E8
:1005500010927700ECE6F0E08381282F207330E0E2
:100560003595279535952795359527953595279573
:10057000A4E6B0E02C938F70865F11968C93119750
:100580008281282F207130E0359527953595279564
:10059000359527953595279512962C9312978F7040
:1005A000865F13968C9313978081813029F4FD0127
:1005B00082E08483158206C0E4E6F0E081E0848373
:1005C00089E0858380916D00982F92959F70E4E675
:0E05D000F0E096838F708783DF91CF910895BE
:1005DE001F920F920FB60F9211242F933F938F936A
:1005EE009F93AF93BF93EF93FF93E1B18E2F90E064
:1005FE00FC013897E135F10508F04DC0EB5CFF4F7B
:10060E000C946F0510927C00E0917C0080917F002D
:10061E00E81760F481E08E0F80937C00F0E0E059E3
:10062E00FF4F808183B985E886BF3AC080917D00F7
:10063E00816080937D0084E986BF32C0E0917C00AA
:10064E0081E08E0F80937C00F0E083B1E059FF4F84
:10065E00808320917C0030E080917F0090E00197B4
:10066E00281739071CF485EC86BF1AC085E886BFAB
:10067E0017C0E0917C00F0E083B1E059FF4F80831A
:10068E0080917D00816080937D0084E986BF08C0E3
:10069E0085EA86BF05C081B180937E0084E086BF67
:1006AE00FF91EF91BF91AF919F918F913F912F91BC
:0A06BE000F900FBE0F901F901895CB
:1006C800CF93DF93882369F00E947905C4E7D0E0CF
:1006D8008A830E947D0589830E9481058F738883A0
:1006E80020C080917700813049F018F0823059F0AD
:1006F8000FC00E947905809376000AC00E947D058C
:100708008093750005C00E9481058F7380937400E3
:10071800809177008F5F80937700833011F4109277
:100728007700A4E7B0E012968C911297E4E6F0E027
:10073800982F9F709783807790E0959587959595EA
:100748008795959587959595879586832EE3258337
:1007580011968C911197982F9F709483807790E0D1
:100768009595879595958795959587959595879569
:10077800838322838C91982F9F709183807790E058
:100788009595879595958795959587959595879549
:080798008083DF91CF910895E9
:1007A00084EF91E00E941A050E94750581E00E9485
:1007B000640381E00E94700281B3807181BB82B3C7
:1007C000806182BB81B3806481BB85B3877F85BB39
:1007D00082B3806482BB80917A0090E00E94990489
:1007E000849906C0809178008F5F8093780008C05C
:1007F000809178008B3020F00E945E051092780086
:1008000090917B008BEA989F812D11248695282F4B
:10081000220F820F981302C00E94290584E690E0FF
:100820000E94D1000E94470580917B008F5F8093DA
:0C0830007B008B3F81F610927B00CDCF47
:10083C001F93CF93DF93EC01162F0E94DD048130C0
:10084C0009F110937F00888180937000888180FF6C
:10085C000DC00FC0822F90E0FE01E80FF91F308110
:10086C00FC01E059FF4F30832F5F01C021E02117BD
:10087C0088F310927D0088EF80937E0085EA86BF16
:0E088C0080E001C08FEFDF91CF911F910895A2
:10089A00CF93DF9300D000D0CDB7DEB790ED998328
:1008AA008A8362E0CE0101960E941E0481110FC064
:1008BA0081ED898362E0CE0101960E941E048111B6
:1008CA0006C062E0CE0101960E9473048A810F90ED
:0C08DA000F900F900F90DF91CF910895C8
:1008E6000F931F93CF938C01C62F0E94DD04813096
:1008F600C1F080917D0080FD0DC00FC0822F90E079
:10090600F801E80FF91FDC01A059BF4F8C918083D5
:100916002F5F01C020E02C1788F380917D00817045
:0C09260001C08FEFCF911F910F91089539
:1009320044E19C01429FC001439F900D11249C0100
:100942003695279536952795ABE7B4E10E94380591
:100952009695879544E6489F9001499F300D112452
:10096200309361002093600080ED97E0821B930B2F
:0A09720090936300809362000895E3
:10097C0068EE73E00E94F20420E030E008C0E7EE7D
:10098C00F3E03197F1F700C000002F5F3F4F2617BF
:10099C003707ACF320E030E006C0FDE0FA95F1F744
:0E09AC000000265F3F4F28173907BCF308955F
:1009BA00CF93C0E005C085E88A95F1F70000CF5FC4
:1009CA000E949105882311F0CF3FA9F7CF3F11F478
:0A09DA0081E001C080E0CF91089594
:1009E40097FB072E16F4009407D077FD09D00E94D8
:1009F400060507FC05D03EF4909581959F4F089518
:080A0400709561957F4F089584
:100A0C00AA1BBB1B51E107C0AA1FBB1FA617B70728
:100A1C0010F0A61BB70B881F991F5A95A9F7809544
:080A2C009095BC01CD01089575
:100A340020E030E008C0E7EEF3E03197F1F700C0C2
:0E0A440000002F5F3F4F28173907ACF30895CD
:100A520080917900882319F0813029F0089580E08F
:0E0A62000E946403089580E00E9470020895CF
:100A7000A29FB001B39FC001A39F700D811D1124DF
:0E0A8000911DB29F700D811D1124911D0895CE
:100A8E0085B3886085BB80917A0090E00E94BE0499
:080A9E0085B3877F85BB089535
:100AA600EC010E9499050E949805CE010E949A05C4
:060AB600CE010E9496052E
:100ABC00809179008F5F80937900823010F01092D2
:040ACC007900089510
:0E0AD0008CE080B98FEF83B984E086BF089573
:0C0ADE00EE0FFF1F0590F491E02D09942D
:080AEA000E946805789408954C
:080AF20080E00E944D0408950C
:080AFA0081E00E944D04089503
:080B020082E00E944D040895F9
:080B0A0084E00E944D040895EF
:080B120085E00E944D040895E6
:080B1A0086E00E944D040895DD
:060B220086B78170089502
:040B28000C94000029
:040B2C000E94BD0066
:020B3000089526
:020B3200089524
:020B3400089522
:010B3600645A
:010B3700F8C5
:00000001FF
